{
  "_format": "hh-sol-artifact-1",
  "contractName": "TodoList",
  "sourceName": "contracts/TodoList.sol",
  "abi": [
    {
      "anonymous": false,
      "inputs": [
        {
          "indexed": false,
          "internalType": "uint256",
          "name": "id",
          "type": "uint256"
        },
        {
          "indexed": true,
          "internalType": "address",
          "name": "owner",
          "type": "address"
        },
        {
          "indexed": true,
          "internalType": "string",
          "name": "text",
          "type": "string"
        },
        {
          "indexed": true,
          "internalType": "uint256",
          "name": "timestamp",
          "type": "uint256"
        }
      ],
      "name": "CreteEvent",
      "type": "event"
    },
    {
      "anonymous": false,
      "inputs": [
        {
          "indexed": true,
          "internalType": "uint256",
          "name": "id",
          "type": "uint256"
        },
        {
          "indexed": true,
          "internalType": "address",
          "name": "owner",
          "type": "address"
        },
        {
          "indexed": true,
          "internalType": "uint256",
          "name": "timestamp",
          "type": "uint256"
        }
      ],
      "name": "RemoveEvent",
      "type": "event"
    },
    {
      "anonymous": false,
      "inputs": [
        {
          "indexed": false,
          "internalType": "uint256",
          "name": "id",
          "type": "uint256"
        },
        {
          "indexed": true,
          "internalType": "address",
          "name": "owner",
          "type": "address"
        },
        {
          "indexed": true,
          "internalType": "string",
          "name": "text",
          "type": "string"
        },
        {
          "indexed": true,
          "internalType": "uint256",
          "name": "updated",
          "type": "uint256"
        }
      ],
      "name": "UpdateEvent",
      "type": "event"
    },
    {
      "inputs": [
        {
          "internalType": "string",
          "name": "_text",
          "type": "string"
        }
      ],
      "name": "createTodo",
      "outputs": [],
      "stateMutability": "nonpayable",
      "type": "function"
    },
    {
      "inputs": [],
      "name": "getTodos",
      "outputs": [
        {
          "components": [
            {
              "internalType": "uint256",
              "name": "id",
              "type": "uint256"
            },
            {
              "internalType": "address",
              "name": "owner",
              "type": "address"
            },
            {
              "internalType": "string",
              "name": "text",
              "type": "string"
            },
            {
              "internalType": "bool",
              "name": "completed",
              "type": "bool"
            },
            {
              "internalType": "uint256",
              "name": "timestamp",
              "type": "uint256"
            },
            {
              "internalType": "uint256",
              "name": "updated",
              "type": "uint256"
            }
          ],
          "internalType": "struct TodoList.Todo[]",
          "name": "",
          "type": "tuple[]"
        }
      ],
      "stateMutability": "view",
      "type": "function"
    },
    {
      "inputs": [
        {
          "internalType": "uint256",
          "name": "_id",
          "type": "uint256"
        }
      ],
      "name": "removeTodo",
      "outputs": [],
      "stateMutability": "nonpayable",
      "type": "function"
    },
    {
      "inputs": [
        {
          "internalType": "uint256",
          "name": "",
          "type": "uint256"
        }
      ],
      "name": "todos",
      "outputs": [
        {
          "internalType": "uint256",
          "name": "id",
          "type": "uint256"
        },
        {
          "internalType": "address",
          "name": "owner",
          "type": "address"
        },
        {
          "internalType": "string",
          "name": "text",
          "type": "string"
        },
        {
          "internalType": "bool",
          "name": "completed",
          "type": "bool"
        },
        {
          "internalType": "uint256",
          "name": "timestamp",
          "type": "uint256"
        },
        {
          "internalType": "uint256",
          "name": "updated",
          "type": "uint256"
        }
      ],
      "stateMutability": "view",
      "type": "function"
    },
    {
      "inputs": [
        {
          "internalType": "uint256",
          "name": "_id",
          "type": "uint256"
        }
      ],
      "name": "toggleComplete",
      "outputs": [],
      "stateMutability": "nonpayable",
      "type": "function"
    },
    {
      "inputs": [
        {
          "internalType": "uint256",
          "name": "_id",
          "type": "uint256"
        },
        {
          "internalType": "string",
          "name": "_text",
          "type": "string"
        }
      ],
      "name": "updateTodo",
      "outputs": [],
      "stateMutability": "nonpayable",
      "type": "function"
    }
  ],
  "bytecode": "0x6080604052348015600f57600080fd5b506119d48061001f6000396000f3fe608060405234801561001057600080fd5b50600436106100625760003560e01c80630951e5bd146100675780633be3d70314610083578063bc8bc2b41461009f578063c33926cb146100d4578063d534ee88146100f2578063e34f12211461010e575b600080fd5b610081600480360381019061007c9190610e91565b61012a565b005b61009d60048036038101906100989190610e91565b6101ac565b005b6100b960048036038101906100b49190610e91565b6103b0565b6040516100cb96959493929190610fb9565b60405180910390f35b6100dc6104b1565b6040516100e991906111e3565b60405180910390f35b61010c6004803603810190610107919061133a565b6107cc565b005b61012860048036038101906101239190611396565b6108a3565b005b600061013582610a3b565b9150506000818154811061014c5761014b6113df565b5b906000526020600020906006020160030160009054906101000a900460ff1615600082815481106101805761017f6113df565b5b906000526020600020906006020160030160006101000a81548160ff0219169083151502179055505050565b60006101b782610a3b565b915050600060016000805490506101ce919061143d565b815481106101df576101de6113df565b5b906000526020600020906006020160008281548110610201576102006113df565b5b9060005260206000209060060201600082015481600001556001820160009054906101000a900473ffffffffffffffffffffffffffffffffffffffff168160010160006101000a81548173ffffffffffffffffffffffffffffffffffffffff021916908373ffffffffffffffffffffffffffffffffffffffff160217905550600282018160020190816102949190611693565b506003820160009054906101000a900460ff168160030160006101000a81548160ff021916908315150217905550600482015481600401556005820154816005015590505060008054806102eb576102ea61177b565b5b60019003818190600052602060002090600602016000808201600090556001820160006101000a81549073ffffffffffffffffffffffffffffffffffffffff021916905560028201600061033f9190610d9c565b6003820160006101000a81549060ff02191690556004820160009055600582016000905550509055423373ffffffffffffffffffffffffffffffffffffffff16837fa283ae84f92e83b5b281747ff43c74df07cb2cae67d7190cdd7226d73156530260405160405180910390a45050565b600081815481106103c057600080fd5b90600052602060002090600602016000915090508060000154908060010160009054906101000a900473ffffffffffffffffffffffffffffffffffffffff169080600201805461040f906114a0565b80601f016020809104026020016040519081016040528092919081815260200182805461043b906114a0565b80156104885780601f1061045d57610100808354040283529160200191610488565b820191906000526020600020905b81548152906001019060200180831161046b57829003601f168201915b5050505050908060030160009054906101000a900460ff16908060040154908060050154905086565b60606000805b600080549050811015610558573373ffffffffffffffffffffffffffffffffffffffff16600082815481106104ef576104ee6113df565b5b906000526020600020906006020160010160009054906101000a900473ffffffffffffffffffffffffffffffffffffffff1673ffffffffffffffffffffffffffffffffffffffff160361054b578180610547906117aa565b9250505b80806001019150506104b7565b5060008167ffffffffffffffff8111156105755761057461120f565b5b6040519080825280602002602001820160405280156105ae57816020015b61059b610ddc565b8152602001906001900390816105935790505b5090506000805b6000805490508110156107c2573373ffffffffffffffffffffffffffffffffffffffff16600082815481106105ed576105ec6113df565b5b906000526020600020906006020160010160009054906101000a900473ffffffffffffffffffffffffffffffffffffffff1673ffffffffffffffffffffffffffffffffffffffff16036107b5576000818154811061064e5761064d6113df565b5b90600052602060002090600602016040518060c0016040529081600082015481526020016001820160009054906101000a900473ffffffffffffffffffffffffffffffffffffffff1673ffffffffffffffffffffffffffffffffffffffff1673ffffffffffffffffffffffffffffffffffffffff1681526020016002820180546106d7906114a0565b80601f0160208091040260200160405190810160405280929190818152602001828054610703906114a0565b80156107505780601f1061072557610100808354040283529160200191610750565b820191906000526020600020905b81548152906001019060200180831161073357829003601f168201915b505050505081526020016003820160009054906101000a900460ff161515151581526020016004820154815260200160058201548152505083838151811061079b5761079a6113df565b5b602002602001018190525081806107b1906117aa565b9250505b80806001019150506105b5565b5081935050505090565b60006107d783610a3b565b91505081600082815481106107ef576107ee6113df565b5b9060005260206000209060060201600201908161080c91906117f2565b504260008281548110610822576108216113df565b5b90600052602060002090600602016005018190555042826040516108469190611900565b60405180910390203373ffffffffffffffffffffffffffffffffffffffff167f1bfc1050c12735e07f86d48dc958e8c1588bf60f76c6dce9144d31bb34ad204c6001546040516108969190611917565b60405180910390a4505050565b60006040518060c0016040528060015481526020013373ffffffffffffffffffffffffffffffffffffffff16815260200183815260200160001515815260200142815260200142815250905042826040516108fe9190611900565b60405180910390203373ffffffffffffffffffffffffffffffffffffffff167facc169aa69d74e444dd546cfb88dbf2990738e83ca82c06645b16705977c906e60015460405161094e9190611917565b60405180910390a460008190806001815401808255809150506001900390600052602060002090600602016000909190919091506000820151816000015560208201518160010160006101000a81548173ffffffffffffffffffffffffffffffffffffffff021916908373ffffffffffffffffffffffffffffffffffffffff16021790555060408201518160020190816109e891906117f2565b5060608201518160030160006101000a81548160ff0219169083151502179055506080820151816004015560a08201518160050155505060016000815480929190610a32906117aa565b91905055505050565b610a43610ddc565b600080600090505b600080549050811015610d5b576000808281548110610a6d57610a6c6113df565b5b90600052602060002090600602016040518060c0016040529081600082015481526020016001820160009054906101000a900473ffffffffffffffffffffffffffffffffffffffff1673ffffffffffffffffffffffffffffffffffffffff1673ffffffffffffffffffffffffffffffffffffffff168152602001600282018054610af6906114a0565b80601f0160208091040260200160405190810160405280929190818152602001828054610b22906114a0565b8015610b6f5780601f10610b4457610100808354040283529160200191610b6f565b820191906000526020600020905b815481529060010190602001808311610b5257829003601f168201915b505050505081526020016003820160009054906101000a900460ff16151515158152602001600482015481526020016005820154815250509050848160000151148015610beb57503373ffffffffffffffffffffffffffffffffffffffff16816020015173ffffffffffffffffffffffffffffffffffffffff16145b15610d4d5760008281548110610c0457610c036113df565b5b906000526020600020906006020182816040518060c0016040529081600082015481526020016001820160009054906101000a900473ffffffffffffffffffffffffffffffffffffffff1673ffffffffffffffffffffffffffffffffffffffff1673ffffffffffffffffffffffffffffffffffffffff168152602001600282018054610c8f906114a0565b80601f0160208091040260200160405190810160405280929190818152602001828054610cbb906114a0565b8015610d085780601f10610cdd57610100808354040283529160200191610d08565b820191906000526020600020905b815481529060010190602001808311610ceb57829003601f168201915b505050505081526020016003820160009054906101000a900460ff16151515158152602001600482015481526020016005820154815250509150935093505050610d97565b508080600101915050610a4b565b506040517f08c379a0000000000000000000000000000000000000000000000000000000008152600401610d8e9061197e565b60405180910390fd5b915091565b508054610da8906114a0565b6000825580601f10610dba5750610dd9565b601f016020900490600052602060002090810190610dd89190610e2a565b5b50565b6040518060c0016040528060008152602001600073ffffffffffffffffffffffffffffffffffffffff1681526020016060815260200160001515815260200160008152602001600081525090565b5b80821115610e43576000816000905550600101610e2b565b5090565b6000604051905090565b600080fd5b600080fd5b6000819050919050565b610e6e81610e5b565b8114610e7957600080fd5b50565b600081359050610e8b81610e65565b92915050565b600060208284031215610ea757610ea6610e51565b5b6000610eb584828501610e7c565b91505092915050565b610ec781610e5b565b82525050565b600073ffffffffffffffffffffffffffffffffffffffff82169050919050565b6000610ef882610ecd565b9050919050565b610f0881610eed565b82525050565b600081519050919050565b600082825260208201905092915050565b60005b83811015610f48578082015181840152602081019050610f2d565b60008484015250505050565b6000601f19601f8301169050919050565b6000610f7082610f0e565b610f7a8185610f19565b9350610f8a818560208601610f2a565b610f9381610f54565b840191505092915050565b60008115159050919050565b610fb381610f9e565b82525050565b600060c082019050610fce6000830189610ebe565b610fdb6020830188610eff565b8181036040830152610fed8187610f65565b9050610ffc6060830186610faa565b6110096080830185610ebe565b61101660a0830184610ebe565b979650505050505050565b600081519050919050565b600082825260208201905092915050565b6000819050602082019050919050565b61105681610e5b565b82525050565b61106581610eed565b82525050565b600082825260208201905092915050565b600061108782610f0e565b611091818561106b565b93506110a1818560208601610f2a565b6110aa81610f54565b840191505092915050565b6110be81610f9e565b82525050565b600060c0830160008301516110dc600086018261104d565b5060208301516110ef602086018261105c565b5060408301518482036040860152611107828261107c565b915050606083015161111c60608601826110b5565b50608083015161112f608086018261104d565b5060a083015161114260a086018261104d565b508091505092915050565b600061115983836110c4565b905092915050565b6000602082019050919050565b600061117982611021565b611183818561102c565b9350836020820285016111958561103d565b8060005b858110156111d157848403895281516111b2858261114d565b94506111bd83611161565b925060208a01995050600181019050611199565b50829750879550505050505092915050565b600060208201905081810360008301526111fd818461116e565b905092915050565b600080fd5b600080fd5b7f4e487b7100000000000000000000000000000000000000000000000000000000600052604160045260246000fd5b61124782610f54565b810181811067ffffffffffffffff821117156112665761126561120f565b5b80604052505050565b6000611279610e47565b9050611285828261123e565b919050565b600067ffffffffffffffff8211156112a5576112a461120f565b5b6112ae82610f54565b9050602081019050919050565b82818337600083830152505050565b60006112dd6112d88461128a565b61126f565b9050828152602081018484840111156112f9576112f861120a565b5b6113048482856112bb565b509392505050565b600082601f83011261132157611320611205565b5b81356113318482602086016112ca565b91505092915050565b6000806040838503121561135157611350610e51565b5b600061135f85828601610e7c565b925050602083013567ffffffffffffffff8111156113805761137f610e56565b5b61138c8582860161130c565b9150509250929050565b6000602082840312156113ac576113ab610e51565b5b600082013567ffffffffffffffff8111156113ca576113c9610e56565b5b6113d68482850161130c565b91505092915050565b7f4e487b7100000000000000000000000000000000000000000000000000000000600052603260045260246000fd5b7f4e487b7100000000000000000000000000000000000000000000000000000000600052601160045260246000fd5b600061144882610e5b565b915061145383610e5b565b925082820390508181111561146b5761146a61140e565b5b92915050565b7f4e487b7100000000000000000000000000000000000000000000000000000000600052602260045260246000fd5b600060028204905060018216806114b857607f821691505b6020821081036114cb576114ca611471565b5b50919050565b6000815490506114e0816114a0565b9050919050565b60008190508160005260206000209050919050565b60006020601f8301049050919050565b600082821b905092915050565b6000600883026115497fffffffffffffffffffffffffffffffffffffffffffffffffffffffffffffffff8261150c565b611553868361150c565b95508019841693508086168417925050509392505050565b6000819050919050565b600061159061158b61158684610e5b565b61156b565b610e5b565b9050919050565b6000819050919050565b6115aa83611575565b6115be6115b682611597565b848454611519565b825550505050565b600090565b6115d36115c6565b6115de8184846115a1565b505050565b5b81811015611602576115f76000826115cb565b6001810190506115e4565b5050565b601f82111561164757611618816114e7565b611621846114fc565b81016020851015611630578190505b61164461163c856114fc565b8301826115e3565b50505b505050565b600082821c905092915050565b600061166a6000198460080261164c565b1980831691505092915050565b60006116838383611659565b9150826002028217905092915050565b8181036116a1575050611779565b6116aa826114d1565b67ffffffffffffffff8111156116c3576116c261120f565b5b6116cd82546114a0565b6116d8828285611606565b6000601f83116001811461170757600084156116f5578287015490505b6116ff8582611677565b865550611772565b601f198416611715876114e7565b9650611720866114e7565b60005b8281101561174857848901548255600182019150600185019450602081019050611723565b868310156117655784890154611761601f891682611659565b8355505b6001600288020188555050505b5050505050505b565b7f4e487b7100000000000000000000000000000000000000000000000000000000600052603160045260246000fd5b60006117b582610e5b565b91507fffffffffffffffffffffffffffffffffffffffffffffffffffffffffffffffff82036117e7576117e661140e565b5b600182019050919050565b6117fb82610f0e565b67ffffffffffffffff8111156118145761181361120f565b5b61181e82546114a0565b611829828285611606565b600060209050601f83116001811461185c576000841561184a578287015190505b6118548582611677565b8655506118bc565b601f19841661186a866114e7565b60005b828110156118925784890151825560018201915060208501945060208101905061186d565b868310156118af57848901516118ab601f891682611659565b8355505b6001600288020188555050505b505050505050565b600081905092915050565b60006118da82610f0e565b6118e481856118c4565b93506118f4818560208601610f2a565b80840191505092915050565b600061190c82846118cf565b915081905092915050565b600060208201905061192c6000830184610ebe565b92915050565b7f546f646f206e6f7420666f756e64206f7220756e617574686f72697a65640000600082015250565b6000611968601e83610f19565b915061197382611932565b602082019050919050565b600060208201905081810360008301526119978161195b565b905091905056fea2646970667358221220230077510171c1ed9426feb70f8f325ef8125ccccf37a1a32c55ad670dcd917864736f6c634300081b0033",
  "linkReferences": {},
  "deployedLinkReferences": {}
}