{
  "_format": "hh-sol-artifact-1",
  "contractName": "TodoList",
  "sourceName": "contracts/TodoList.sol",
  "abi": [
    {
      "anonymous": false,
      "inputs": [
        {
          "indexed": false,
          "internalType": "uint256",
          "name": "id",
          "type": "uint256"
        },
        {
          "indexed": true,
          "internalType": "address",
          "name": "owner",
          "type": "address"
        },
        {
          "indexed": true,
          "internalType": "string",
          "name": "text",
          "type": "string"
        },
        {
          "indexed": true,
          "internalType": "uint256",
          "name": "timestamp",
          "type": "uint256"
        }
      ],
      "name": "CreteEvent",
      "type": "event"
    },
    {
      "anonymous": false,
      "inputs": [
        {
          "indexed": true,
          "internalType": "uint256",
          "name": "id",
          "type": "uint256"
        },
        {
          "indexed": true,
          "internalType": "address",
          "name": "owner",
          "type": "address"
        },
        {
          "indexed": true,
          "internalType": "uint256",
          "name": "timestamp",
          "type": "uint256"
        }
      ],
      "name": "RemoveEvent",
      "type": "event"
    },
    {
      "anonymous": false,
      "inputs": [
        {
          "indexed": false,
          "internalType": "uint256",
          "name": "id",
          "type": "uint256"
        },
        {
          "indexed": true,
          "internalType": "address",
          "name": "owner",
          "type": "address"
        },
        {
          "indexed": true,
          "internalType": "string",
          "name": "text",
          "type": "string"
        },
        {
          "indexed": true,
          "internalType": "uint256",
          "name": "updated",
          "type": "uint256"
        }
      ],
      "name": "UpdateEvent",
      "type": "event"
    },
    {
      "inputs": [
        {
          "internalType": "string",
          "name": "_text",
          "type": "string"
        }
      ],
      "name": "createTodo",
      "outputs": [],
      "stateMutability": "nonpayable",
      "type": "function"
    },
    {
      "inputs": [],
      "name": "getTodos",
      "outputs": [
        {
          "components": [
            {
              "internalType": "uint256",
              "name": "id",
              "type": "uint256"
            },
            {
              "internalType": "address",
              "name": "owner",
              "type": "address"
            },
            {
              "internalType": "string",
              "name": "text",
              "type": "string"
            },
            {
              "internalType": "bool",
              "name": "completed",
              "type": "bool"
            },
            {
              "internalType": "uint256",
              "name": "timestamp",
              "type": "uint256"
            },
            {
              "internalType": "uint256",
              "name": "updated",
              "type": "uint256"
            }
          ],
          "internalType": "struct TodoList.Todo[]",
          "name": "",
          "type": "tuple[]"
        }
      ],
      "stateMutability": "view",
      "type": "function"
    },
    {
      "inputs": [
        {
          "internalType": "uint256",
          "name": "_id",
          "type": "uint256"
        }
      ],
      "name": "removeTodo",
      "outputs": [],
      "stateMutability": "nonpayable",
      "type": "function"
    },
    {
      "inputs": [
        {
          "internalType": "uint256",
          "name": "",
          "type": "uint256"
        }
      ],
      "name": "todos",
      "outputs": [
        {
          "internalType": "uint256",
          "name": "id",
          "type": "uint256"
        },
        {
          "internalType": "address",
          "name": "owner",
          "type": "address"
        },
        {
          "internalType": "string",
          "name": "text",
          "type": "string"
        },
        {
          "internalType": "bool",
          "name": "completed",
          "type": "bool"
        },
        {
          "internalType": "uint256",
          "name": "timestamp",
          "type": "uint256"
        },
        {
          "internalType": "uint256",
          "name": "updated",
          "type": "uint256"
        }
      ],
      "stateMutability": "view",
      "type": "function"
    },
    {
      "inputs": [
        {
          "internalType": "uint256",
          "name": "_id",
          "type": "uint256"
        }
      ],
      "name": "toggleComplete",
      "outputs": [],
      "stateMutability": "nonpayable",
      "type": "function"
    },
    {
      "inputs": [
        {
          "internalType": "uint256",
          "name": "_id",
          "type": "uint256"
        },
        {
          "internalType": "string",
          "name": "_text",
          "type": "string"
        }
      ],
      "name": "updateTodo",
      "outputs": [],
      "stateMutability": "nonpayable",
      "type": "function"
    }
  ],
  "bytecode": "0x6080604052348015600f57600080fd5b50611a118061001f6000396000f3fe608060405234801561001057600080fd5b50600436106100625760003560e01c80630951e5bd146100675780633be3d70314610083578063bc8bc2b41461009f578063c33926cb146100d4578063d534ee88146100f2578063e34f12211461010e575b600080fd5b610081600480360381019061007c9190610ece565b61012a565b005b61009d60048036038101906100989190610ece565b6101ac565b005b6100b960048036038101906100b49190610ece565b6103b0565b6040516100cb96959493929190610ff6565b60405180910390f35b6100dc6104b1565b6040516100e99190611220565b60405180910390f35b61010c60048036038101906101079190611377565b6107cc565b005b610128600480360381019061012391906113d3565b6108e0565b005b600061013582610a78565b9150506000818154811061014c5761014b61141c565b5b906000526020600020906006020160030160009054906101000a900460ff1615600082815481106101805761017f61141c565b5b906000526020600020906006020160030160006101000a81548160ff0219169083151502179055505050565b60006101b782610a78565b915050600060016000805490506101ce919061147a565b815481106101df576101de61141c565b5b9060005260206000209060060201600082815481106102015761020061141c565b5b9060005260206000209060060201600082015481600001556001820160009054906101000a900473ffffffffffffffffffffffffffffffffffffffff168160010160006101000a81548173ffffffffffffffffffffffffffffffffffffffff021916908373ffffffffffffffffffffffffffffffffffffffff1602179055506002820181600201908161029491906116d0565b506003820160009054906101000a900460ff168160030160006101000a81548160ff021916908315150217905550600482015481600401556005820154816005015590505060008054806102eb576102ea6117b8565b5b60019003818190600052602060002090600602016000808201600090556001820160006101000a81549073ffffffffffffffffffffffffffffffffffffffff021916905560028201600061033f9190610dd9565b6003820160006101000a81549060ff02191690556004820160009055600582016000905550509055423373ffffffffffffffffffffffffffffffffffffffff16837fa283ae84f92e83b5b281747ff43c74df07cb2cae67d7190cdd7226d73156530260405160405180910390a45050565b600081815481106103c057600080fd5b90600052602060002090600602016000915090508060000154908060010160009054906101000a900473ffffffffffffffffffffffffffffffffffffffff169080600201805461040f906114dd565b80601f016020809104026020016040519081016040528092919081815260200182805461043b906114dd565b80156104885780601f1061045d57610100808354040283529160200191610488565b820191906000526020600020905b81548152906001019060200180831161046b57829003601f168201915b5050505050908060030160009054906101000a900460ff16908060040154908060050154905086565b60606000805b600080549050811015610558573373ffffffffffffffffffffffffffffffffffffffff16600082815481106104ef576104ee61141c565b5b906000526020600020906006020160010160009054906101000a900473ffffffffffffffffffffffffffffffffffffffff1673ffffffffffffffffffffffffffffffffffffffff160361054b578180610547906117e7565b9250505b80806001019150506104b7565b5060008167ffffffffffffffff8111156105755761057461124c565b5b6040519080825280602002602001820160405280156105ae57816020015b61059b610e19565b8152602001906001900390816105935790505b5090506000805b6000805490508110156107c2573373ffffffffffffffffffffffffffffffffffffffff16600082815481106105ed576105ec61141c565b5b906000526020600020906006020160010160009054906101000a900473ffffffffffffffffffffffffffffffffffffffff1673ffffffffffffffffffffffffffffffffffffffff16036107b5576000818154811061064e5761064d61141c565b5b90600052602060002090600602016040518060c0016040529081600082015481526020016001820160009054906101000a900473ffffffffffffffffffffffffffffffffffffffff1673ffffffffffffffffffffffffffffffffffffffff1673ffffffffffffffffffffffffffffffffffffffff1681526020016002820180546106d7906114dd565b80601f0160208091040260200160405190810160405280929190818152602001828054610703906114dd565b80156107505780601f1061072557610100808354040283529160200191610750565b820191906000526020600020905b81548152906001019060200180831161073357829003601f168201915b505050505081526020016003820160009054906101000a900460ff161515151581526020016004820154815260200160058201548152505083838151811061079b5761079a61141c565b5b602002602001018190525081806107b1906117e7565b9250505b80806001019150506105b5565b5081935050505090565b60006107d783610a78565b91505081600082815481106107ef576107ee61141c565b5b9060005260206000209060060201600201908161080c919061182f565b5042600082815481106108225761082161141c565b5b906000526020600020906006020160050181905550600080828154811061084c5761084b61141c565b5b906000526020600020906006020160030160006101000a81548160ff0219169083151502179055504282604051610883919061193d565b60405180910390203373ffffffffffffffffffffffffffffffffffffffff167f1bfc1050c12735e07f86d48dc958e8c1588bf60f76c6dce9144d31bb34ad204c6001546040516108d39190611954565b60405180910390a4505050565b60006040518060c0016040528060015481526020013373ffffffffffffffffffffffffffffffffffffffff168152602001838152602001600015158152602001428152602001428152509050428260405161093b919061193d565b60405180910390203373ffffffffffffffffffffffffffffffffffffffff167facc169aa69d74e444dd546cfb88dbf2990738e83ca82c06645b16705977c906e60015460405161098b9190611954565b60405180910390a460008190806001815401808255809150506001900390600052602060002090600602016000909190919091506000820151816000015560208201518160010160006101000a81548173ffffffffffffffffffffffffffffffffffffffff021916908373ffffffffffffffffffffffffffffffffffffffff1602179055506040820151816002019081610a25919061182f565b5060608201518160030160006101000a81548160ff0219169083151502179055506080820151816004015560a08201518160050155505060016000815480929190610a6f906117e7565b91905055505050565b610a80610e19565b600080600090505b600080549050811015610d98576000808281548110610aaa57610aa961141c565b5b90600052602060002090600602016040518060c0016040529081600082015481526020016001820160009054906101000a900473ffffffffffffffffffffffffffffffffffffffff1673ffffffffffffffffffffffffffffffffffffffff1673ffffffffffffffffffffffffffffffffffffffff168152602001600282018054610b33906114dd565b80601f0160208091040260200160405190810160405280929190818152602001828054610b5f906114dd565b8015610bac5780601f10610b8157610100808354040283529160200191610bac565b820191906000526020600020905b815481529060010190602001808311610b8f57829003601f168201915b505050505081526020016003820160009054906101000a900460ff16151515158152602001600482015481526020016005820154815250509050848160000151148015610c2857503373ffffffffffffffffffffffffffffffffffffffff16816020015173ffffffffffffffffffffffffffffffffffffffff16145b15610d8a5760008281548110610c4157610c4061141c565b5b906000526020600020906006020182816040518060c0016040529081600082015481526020016001820160009054906101000a900473ffffffffffffffffffffffffffffffffffffffff1673ffffffffffffffffffffffffffffffffffffffff1673ffffffffffffffffffffffffffffffffffffffff168152602001600282018054610ccc906114dd565b80601f0160208091040260200160405190810160405280929190818152602001828054610cf8906114dd565b8015610d455780601f10610d1a57610100808354040283529160200191610d45565b820191906000526020600020905b815481529060010190602001808311610d2857829003601f168201915b505050505081526020016003820160009054906101000a900460ff16151515158152602001600482015481526020016005820154815250509150935093505050610dd4565b508080600101915050610a88565b506040517f08c379a0000000000000000000000000000000000000000000000000000000008152600401610dcb906119bb565b60405180910390fd5b915091565b508054610de5906114dd565b6000825580601f10610df75750610e16565b601f016020900490600052602060002090810190610e159190610e67565b5b50565b6040518060c0016040528060008152602001600073ffffffffffffffffffffffffffffffffffffffff1681526020016060815260200160001515815260200160008152602001600081525090565b5b80821115610e80576000816000905550600101610e68565b5090565b6000604051905090565b600080fd5b600080fd5b6000819050919050565b610eab81610e98565b8114610eb657600080fd5b50565b600081359050610ec881610ea2565b92915050565b600060208284031215610ee457610ee3610e8e565b5b6000610ef284828501610eb9565b91505092915050565b610f0481610e98565b82525050565b600073ffffffffffffffffffffffffffffffffffffffff82169050919050565b6000610f3582610f0a565b9050919050565b610f4581610f2a565b82525050565b600081519050919050565b600082825260208201905092915050565b60005b83811015610f85578082015181840152602081019050610f6a565b60008484015250505050565b6000601f19601f8301169050919050565b6000610fad82610f4b565b610fb78185610f56565b9350610fc7818560208601610f67565b610fd081610f91565b840191505092915050565b60008115159050919050565b610ff081610fdb565b82525050565b600060c08201905061100b6000830189610efb565b6110186020830188610f3c565b818103604083015261102a8187610fa2565b90506110396060830186610fe7565b6110466080830185610efb565b61105360a0830184610efb565b979650505050505050565b600081519050919050565b600082825260208201905092915050565b6000819050602082019050919050565b61109381610e98565b82525050565b6110a281610f2a565b82525050565b600082825260208201905092915050565b60006110c482610f4b565b6110ce81856110a8565b93506110de818560208601610f67565b6110e781610f91565b840191505092915050565b6110fb81610fdb565b82525050565b600060c083016000830151611119600086018261108a565b50602083015161112c6020860182611099565b506040830151848203604086015261114482826110b9565b915050606083015161115960608601826110f2565b50608083015161116c608086018261108a565b5060a083015161117f60a086018261108a565b508091505092915050565b60006111968383611101565b905092915050565b6000602082019050919050565b60006111b68261105e565b6111c08185611069565b9350836020820285016111d28561107a565b8060005b8581101561120e57848403895281516111ef858261118a565b94506111fa8361119e565b925060208a019950506001810190506111d6565b50829750879550505050505092915050565b6000602082019050818103600083015261123a81846111ab565b905092915050565b600080fd5b600080fd5b7f4e487b7100000000000000000000000000000000000000000000000000000000600052604160045260246000fd5b61128482610f91565b810181811067ffffffffffffffff821117156112a3576112a261124c565b5b80604052505050565b60006112b6610e84565b90506112c2828261127b565b919050565b600067ffffffffffffffff8211156112e2576112e161124c565b5b6112eb82610f91565b9050602081019050919050565b82818337600083830152505050565b600061131a611315846112c7565b6112ac565b90508281526020810184848401111561133657611335611247565b5b6113418482856112f8565b509392505050565b600082601f83011261135e5761135d611242565b5b813561136e848260208601611307565b91505092915050565b6000806040838503121561138e5761138d610e8e565b5b600061139c85828601610eb9565b925050602083013567ffffffffffffffff8111156113bd576113bc610e93565b5b6113c985828601611349565b9150509250929050565b6000602082840312156113e9576113e8610e8e565b5b600082013567ffffffffffffffff81111561140757611406610e93565b5b61141384828501611349565b91505092915050565b7f4e487b7100000000000000000000000000000000000000000000000000000000600052603260045260246000fd5b7f4e487b7100000000000000000000000000000000000000000000000000000000600052601160045260246000fd5b600061148582610e98565b915061149083610e98565b92508282039050818111156114a8576114a761144b565b5b92915050565b7f4e487b7100000000000000000000000000000000000000000000000000000000600052602260045260246000fd5b600060028204905060018216806114f557607f821691505b602082108103611508576115076114ae565b5b50919050565b60008154905061151d816114dd565b9050919050565b60008190508160005260206000209050919050565b60006020601f8301049050919050565b600082821b905092915050565b6000600883026115867fffffffffffffffffffffffffffffffffffffffffffffffffffffffffffffffff82611549565b6115908683611549565b95508019841693508086168417925050509392505050565b6000819050919050565b60006115cd6115c86115c384610e98565b6115a8565b610e98565b9050919050565b6000819050919050565b6115e7836115b2565b6115fb6115f3826115d4565b848454611556565b825550505050565b600090565b611610611603565b61161b8184846115de565b505050565b5b8181101561163f57611634600082611608565b600181019050611621565b5050565b601f8211156116845761165581611524565b61165e84611539565b8101602085101561166d578190505b61168161167985611539565b830182611620565b50505b505050565b600082821c905092915050565b60006116a760001984600802611689565b1980831691505092915050565b60006116c08383611696565b9150826002028217905092915050565b8181036116de5750506117b6565b6116e78261150e565b67ffffffffffffffff811115611700576116ff61124c565b5b61170a82546114dd565b611715828285611643565b6000601f8311600181146117445760008415611732578287015490505b61173c85826116b4565b8655506117af565b601f19841661175287611524565b965061175d86611524565b60005b8281101561178557848901548255600182019150600185019450602081019050611760565b868310156117a2578489015461179e601f891682611696565b8355505b6001600288020188555050505b5050505050505b565b7f4e487b7100000000000000000000000000000000000000000000000000000000600052603160045260246000fd5b60006117f282610e98565b91507fffffffffffffffffffffffffffffffffffffffffffffffffffffffffffffffff82036118245761182361144b565b5b600182019050919050565b61183882610f4b565b67ffffffffffffffff8111156118515761185061124c565b5b61185b82546114dd565b611866828285611643565b600060209050601f8311600181146118995760008415611887578287015190505b61189185826116b4565b8655506118f9565b601f1984166118a786611524565b60005b828110156118cf578489015182556001820191506020850194506020810190506118aa565b868310156118ec57848901516118e8601f891682611696565b8355505b6001600288020188555050505b505050505050565b600081905092915050565b600061191782610f4b565b6119218185611901565b9350611931818560208601610f67565b80840191505092915050565b6000611949828461190c565b915081905092915050565b60006020820190506119696000830184610efb565b92915050565b7f546f646f206e6f7420666f756e64206f7220756e617574686f72697a65640000600082015250565b60006119a5601e83610f56565b91506119b08261196f565b602082019050919050565b600060208201905081810360008301526119d481611998565b905091905056fea2646970667358221220a29daaf3dd32dd3ee3e115ed4033359fa2093399702dee503a6754eec7ceee0364736f6c634300081b0033",
  "linkReferences": {},
  "deployedLinkReferences": {}
}